:02000000512885
:10000800803120007F08F100911E0B280C284E2813
:1000180023001908F0007008F20020004E08031DA4
:10002800162818284E284E2872080D3A031D1D2838
:100038001E282128CE01CE0A4E28F3012030730253
:10004800031C272828282A284E284E2873084F3EA4
:10005800860087018108031D322833284228720848
:10006800F00073084F3E860087017008810073080E
:10007800013E4F3E8600870181014E280130F00085
:100088007008F30720307302031C4B284C282A28D9
:100098004E284E287108FF000900882F6A30210079
:1000A80099002F308C0022009D171D150130230068
:1000B8008C0020008C010B178B178331AC23803107
:1000C80021009513063024008C0021009D01033087
:1000D8002000BB008A30BA005630B900B90B72282C
:1000E800BA0B7228BB0B72287928093086317A2618
:1000F80080312000CB01CC010230C9000030CA0099
:10010800C601C701C3015230B9003908CD008C2897
:100118008331A323803133302000B3008430B4000E
:100128008731342780318331A32380310130200087
:10013800B3008430B4008731342780318331A3235E
:100148008031BB28A7285A302000B3008430B4007F
:10015800873134278031CA28B1285E302000B300A7
:100168008430B400873134278031CA28CA28200057
:100178004D08483A0319A728053A0319B1281F3A28
:100188000319A728053A0319B128CA288331A323DC
:1001980080310B138B1320004D08523A0319D528D0
:1001A800D628DD284D08483A031DDB28DC28E42939
:1001B800DD285030B3008430B400873134278031D3
:1001C80020004C08F501F5074B08F401F4073E3010
:1001D800B9003908F6008531292580312000B3009F
:1001E8000030B4008731342780314B302000B30011
:1001F8008430B40087313427803120004A08F50163
:10020800F5074908F401F4073E30B9003908F6004B
:100218008531292580312000B3000030B4008731B2
:10022800342780318331A32380312000C401C501E4
:10023800D8294508BA004408B9000530B935BA0DBF
:10024800890B22294B083907A0004C083A3DA10028
:100258004F30BB003B08A20084316A248031200063
:100268004D08523A031D39293A2960294508BA0030
:100278004408B9000530B935BA0D890B3F294B0838
:100288003907F4004C083A3DF5003E30BB003B0806
:10029800F6008531292580312000B3000030B400F4
:1002A80087313427803165302000B3008430B400B2
:1002B80087313427803160292000C8012030480266
:1002C800031C672968296A29CF29CF293E30B9003C
:1002D8003908F40048084F3E860087010108863136
:1002E800452680312000B3000030B4008731342720
:1002F800803166302000B3008430B4008731342761
:100308008031200048080F3A031D8B298C29C32906
:100318008331A323803120004D08523A031D9529CB
:100328009629C3294508BA004408B9000530B935EB
:10033800BA0D890B9B294B083907BB004C083A3D7D
:10034800BC003B08103EF40000303C3DF5003E3058
:10035800BD003D08F6008531292580312000B30015
:100368000030B40087313427803165302000B30075
:100378008430B400873134278031C329C329013040
:100388002000B9003908C80720304802031CCD29CD
:10039800CE296A29CF298331A32380310130200057
:1003A800C4070030C53DD8294A084502031DDE2987
:1003B80049084402031CE129E2291D29932A932AAA
:1003C8004D08573A0319E929EA29F1294D084D3A08
:1003D800031DEF29F029932AF1295030B300843006
:1003E800B40087313427803120004C08F501F50727
:1003F8004B08F401F4073E30B9003908F60085319E
:10040800292580312000B3000030B400873134271B
:10041800803120004D084D3A031D132A142A312A31
:100428004530B3008430B400873134278031200050
:100438004A08F501F5074908F401F4073E30B90008
:100448003908F6008531292580312000B3000030B5
:10045800B400873134278031312A3F302000B3007F
:100468008430B4008731342780313E302000B90011
:100478003908F40043088631452680312000B3004E
:100488000030B4008731342780318331A323803191
:1004980020004D08573A031D522A532A612A4C0856
:1004A800F601F6074B08F501F5074308B9003908C6
:1004B800F7008631D4268031862AC801772A480871
:1004C8004B07F5004C0803184C0AF6004308B9001E
:1004D8003908F7008631D426803101302000B90070
:1004E8003908C807772A4808B900BA014A083A0201
:1004F800031D802A49083902031C832A842A632A97
:10050800862A862A55302000B3008430B40087310B
:10051800342780318331A3238031932A932A200002
:10052800CF01CE010B178B17CB01CC01C901CA0132
:10053800C601C7015230B9003908CD00A32A0330DB
:10054800BB008A30BA005630B900B90BA92ABA0BD9
:10055800A92ABB0BA92AB02A20004E08031DB52AD8
:10056800032B4F08523A0319BA2ABB2AC22A4F084A
:10057800483A031DC02AC12AD82AC22A4B30B900DA
:100588003908AB004930BA003A08AC004630BB0025
:100598003B08AD0050308431CA24803120004F0818
:1005A800B9003908CD00002B4F08573A0319DD2A46
:1005B800DE2AE52A4F084D3A031DE32AE42A002BD8
:1005C800E52A4B30B9003908AB004630BA003A0882
:1005D800AC004930BB003B08AD0050308431CA2420
:1005E800803120004608B9003908C3004F08B90017
:1005F8003908CD00002B002BCF01CE018C288C1997
:10060800062B072BA32A8C288C28A32AA32A8C28FC
:100618008C2851282000A700A401A501A6011A2BA7
:1006280001302000A2002208A7071A2B27088600FD
:100638008701010887316E2783310318242B252B66
:10064800142B262B200027088600870101082D3A45
:10065800031D2F2B302B392B0130A2002208A407B1
:100668000130A2002208A7077A2B270886008701F5
:1006780001082B3A031D412B422B7A2B0130A20093
:100688002208A7077A2B7A2B7A2B20002808873193
:100698009F278331031C512B522B5C2B20002808E9
:1006A8008731D92783312000A2002208A8005C2BBB
:1006B800200028088731B3278331031C642B652B5E
:1006C800692B30302000A8026D2B57302000A8027B
:1006D8006D2B0430A535A60D890B6E2B2808A200BA
:1006E800A3012208A5072308A63D7A2B2708860020
:1006F80087010130A7070108A8008631AA2683319F
:100708000318872B882B492B892B20002408031DCD
:100718008E2B9B2B2509A2002609A300A20A0319E8
:10072800A30A2208A0002308A100A22BA22B2608B6
:10073800A101A1072508A001A007A22B080062308B
:100748002000B3008430B400873134278331080097
:100758008030240094000930920028309500080069
:10076800F4007408240091008731EB2783310800D6
:10077800FE0012001E00FE0BBD2B003424001614D0
:100788008731EB2783310800240096148731EB2743
:1007980083310800240016158731EB2783310800C0
:1008000000345B3452347C3448345D345B346134BE
:10081000643472345D342C345B34703467345D344A
:100820002C34203457345B346134643472345D3496
:100830002C345B346434613474345D342C342034AF
:100840004D345B346134643472345D342C345B3445
:100850006434613474345D342C345B3463346E340A
:1008600074345D34003445344534503452344F349C
:100870004D3420347534743469346C3400342C3481
:10088000643461347434203400342C3463346E3472
:100890007434203400342C34703467342034003401
:1008A0006134643472342034003464346F346E3410
:1008B0006534003464346D34703400347734723409
:1008C000743400340D340A3400343A3420340034A3
:1008D0002C3400348331C2238431A2308331B423D9
:1008E0008431200021088331B42384312000200882
:1008F0008331B42384318331C8238431A3308331DD
:10090000B42384312000A301A4012408803AFF000D
:1009100080307F02031D8E2C1F302302031C912C7C
:10092000922C942CB42CB42C0130873116278431AE
:10093000F700200023082207F800780886008701C6
:10094000770881000130A3070030A43D2408803AD5
:10095000FF0080307F02031DAF2C1F302302031CD9
:10096000B22CB32C942CB42C003087311627843150
:10097000F700200022081F3E8600870177088100CB
:100980008331CE2384310930F700F70BC52CC82CF6
:10099000C92C08002000B0006830AE002E08B2005C
:1009A000B1013208AE002E08A5003008853183253C
:1009B00084312000AF002F08B300222D072D33080B
:1009C00083310E23843120002B0886008701200804
:1009D000C03F2108C13F152D330883310E238431D8
:1009E00020002C08860087012008C03F2108C13F55
:1009F000152D330883310E23843120002D08860005
:100A000087012008C03F2108C13F152D152D013059
:100A1000B107FF303107003A0319DF2C013A0319FF
:100A2000EC2C033A0319F92C152D3208AE002E08D0
:100A3000A50000308531832584312000AF002F08C8
:100A4000B300222DB308031D262D272D072D282D99
:100A50000800B0308600003087002330840000306A
:100A600085001030FF0016001A00FF0B332D7508AB
:100A70002000A1007408A0000C30A136A00C890B46
:100A80003D2D2008233E860087010108A20076083C
:100A9000860087012208810075080F39233E8600F1
:100AA00087010108A000760A8600870120088100DE
:100AB0007508A1007408A0000430A136A00C890BB1
:100AC0005D2D20080F39233E860087010108A20012
:100AD0007608023E860087012208810074080F39DB
:100AE000233E860087010108A0007608033E8600A9
:100AF0008701200881007608043E86008701810175
:100B00007608822D08002000AA00AA08031D892D5E
:100B10008A2D8F2D7908A6002608AA008F2DAA08F5
:100B2000031D932D942D972D0030D82DD82D2508F9
:100B3000A6002608F7002A088531D92585317708CF
:100B40002000A7002708AA072A0886008701810835
:100B5000031DAB2DAC2DB02D0030F900D82DD82DB4
:100B60002508A6002608F7002A0886310F268531B9
:100B700077082000A7007808A8002A082707A900FE
:100B80002908F9007908860087010108003A03194D
:100B9000CA2DCB2DD42D7908860087018101013023
:100BA000A6002608F907D62DF901D62D2A08D82D3A
:100BB00008002000A400A201A301E82D01302000BC
:100BC000A0002008A4070130A2070030A33DE82DB3
:100BD0002408860087010108003A0319F02DF12D41
:100BE000062E2408860087010108A000A101200824
:100BF000F4002108F5007708873151278531003846
:100C0000031D032E042EDE2D062E062E20002308A3
:100C1000F801F8072208F701F7070E2E0800200058
:100C2000A400A201A3011E2E01302000A000200874
:100C3000A4070130A2070030A33D1E2E2408860021
:100C400087010108003A0319262E272E3C2E24087E
:100C5000860087010108A000A1012008F4002108F6
:100C6000F5007708873151278631003A0319392E6C
:100C70003A2E142E3C2E3C2E20002308F801F807B3
:100C80002208F701F707442E08002000B000A0302A
:100C9000860000308700203084000030850010304E
:100CA000FF0016001A00FF0B512E3008F50004302B
:100CB000F536890B582E7508203E860087010108FD
:100CC000F6007408860087017608810030080F3925
:100CD000203E860087010108F500740A860087011E
:100CE000750881007408023E86008701810174083E
:100CF000792E0800F40023001E129F11902E1E1161
:100D000019309B009E2E1E110C309B009E2E1E152E
:100D100019309B009E2E1E150C309B009E2E9E2E81
:100D20007408023A03197F2E063A0319832E0D3AEE
:100D30000319872E1A3A03198B2E9E2E1D161E1389
:100D40001D139D179E162000CE01CF012100111208
:100D500091160800F700F601F60A673077020318CB
:100D6000B22EB32EBA2E613077020318B82EB92EE8
:100D7000D12EBA2E473077020318BF2EC02EC72EB1
:100D8000413077020318C52EC62ED12EC72E770804
:100D90008731B32786310318CE2ECF2ED12EF60100
:100DA000D12E760CD32E08008331C2238631A23097
:100DB0008331B423863176088331B42386317508B4
:100DC0008331B423863177088331B423863183316C
:100DD000CE2386310D302000A100FB30A000A00BF7
:100DE000EF2EA10BEF2EF42EF52E08003034313407
:100DF00032343334343435343634373438343934A7
:100E0000413442344334443445344634303431344C
:100E10003234333434343534363437343834393486
:100E2000413442344334443445344634F5002400DC
:100E300096158731EB27873124001108F4007408D8
:100E4000F6008731EB2787317508031D282F2B2FDC
:100E5000240096122D2F2400961616168731EB27A4
:100E600087317608332F0800442F20003308840090
:100E70003408850000088731C727873101302000FA
:100E8000B3070030B43D442F2000330884003408F9
:100E9000850000080038031D4E2F4F2F352F502F8F
:100EA0000800F600760884310A0087317406031DB5
:100EB0005A2F5B2F5E2F76086D2F6D2F0130F607AE
:100EC000FF30760784310A0087310038031D692F0F
:100ED0006A2F522F6B2F00306D2F0800F500F401A0
:100EE000F40A7508203A0319762F772F852F0E30D4
:100EF000750203187C2F7D2F832F0930750203188C
:100F0000822F832F852FF401852F740C872F0800E3
:100F1000F9014E3084000030850022308731FA27F5
:100F20008731F630840086308500A030860000309E
:100F3000870020308331BC23873120005228F50000
:100F4000F4015B3075020318A62FA72FB02F413094
:100F50007502031CAC2FAD2FB02FF401F40AB02F93
:100F6000740CB22F0800F500F4013A307502031832
:100F7000BA2FBB2FC42F30307502031CC02FC12FD6
:100F8000C42FF401F40AC42F740CC62F0800F40017
:100F9000C92F23009E1CCD2FCE2FC92F2000111E3C
:100FA000D22FD32FC92FD42F740823009A00D82F03
:100FB0000800F4005B3074020318DF2FE02FE82FE5
:100FC00041307402031CE52FE62FE82FF416E82FBA
:100FD0007408EA2F0800ED2FED2F240016081F39A2
:100FE000031DF32FF42FED2F1419F72FF82FED2FEA
:100FF000F92F0800640080010131890BFB2F0034B8
:020000040001F9
:04000E0084C9FFDAC8
:00000001FF
